:020000020000FC
:0200000004C03A
:020004002DC00D
:1000080032C00FEF04B903E00AB90CE00BB90AE0FB
:100018000093690003E00DBB789477E38BE397E1E5
:1000280000E38AD00CE088D001E086D0513041F05E
:100038001F935F931FD044D05F911F918ED0F4CF50
:1000480001E07AD0503081F31F935F9326D038D0E7
:100058005F911F9182D0F4CF75D0513011F051E0EB
:10006800189550E018956ED0113011F011E01895E0
:1000780010E018956CE37395761709F0089570E011
:100088006CE38395861709F0089580E068E19395FD
:10009800961709F0089590E0089560E07A9576172C
:1000A8000AF008957BE360E08A9586170AF00895C0
:1000B8008BE360E09A9596170AF0089597E1089502
:1000C800113099F01127092F25D0502F012F29D051
:1000D800052F27D00AE329D01127082F1BD0502F2E
:1000E800012F1FD0052F1DD0089501E025D011271D
:1000F800082F10D0502F012F14D0052F12D0112700
:100108000AE313D0072F06D0502F012F0AD0052F4E
:1001180008D008955AE00A3008F40895050B13959D
:10012800F9CF10E3010F01D00895599A589A05B9EB
:1001380009D05898599808955998589A05B902D0ED
:10014800589808952F933F9322E039E03A95F1F7B4
:100158002A95E1F73F912F9108952F933F9326E039
:1001680039E04AE44A95F1F73A95E1F72A95D1F74B
:060178003F912F91089554
:00000001FF
